:400000000080002011000000211400002114000080B500AF034A044B1B68136001F062FB01F002FABC760040FA46004010B5054C237833B9044B13B10448AFF300800123C0
:40004000237010BD5081FF1F00000000E4310000084B10B51BB108490848AFF300800848036803B910BD074B002BFBD0BDE81040184700BF000000005481FF1FE4310000CE
:40008000C880FF1F0000000080B582B000AF0023FB800023BB80194B00221A70002002F0A5F9012002F0C0F9322002F013FD02F07FFA0346FB8002F087FA0346BB80BB887F
:4000C0001B021AB2B7F9063013431BB2FB80FB88C3F30C03FB80FB8803F00103002B02D1064B0E221A70012002F080F9012002F09BF900BF0837BD4680BD00BF9481FF1FEA
:4001000080B500AF012002F089FAFA2002F0E2FC002002F083FAFA2002F0DCFC012002F07DFAFA2002F0D6FC002002F077FA02F033FA02F0D3F900BF80BD00BF80B485B0FC
:4001400000AF78600B467B800023FB810BE07B88013B7A6813441B789AB2FB891344FB817B88013B7B807B88002BF0D1FB895B429BB218461437BD4680BC704780B582B0D7
:4001800000AF75E0404B1B889BB25A1C91B23E4A118019463D4AFB795354FB790A2B04D0394B1B889BB2FF2B62D9394B1B78DBB283F00103DBB2002B5AD0344B1B78DBB2FB
:4001C000212B02D0242B18D046E0324B1B78DBB25A1CD1B22F4A11705B002F4A134402222E49184602F046FF2A4B1B78DBB203F00103DAB2274B1A7037E0294B1B78DBB2DA
:400200001A4613465B001344DB00264A98181E4B1B889BB21A461D4902F02CFF204B1B78DBB21946184B1B889BB25A1C90B2164A108018461B4A0B465B000B44DB00134447
:40024000034400221A70104B1B889BB203F003039AB20D4B1A8008E017220C49124802F009FF114B0022DA7500BF074B00221A8001F0E2FF0346FB71FB79002B82D100BF6D
:400280000837BD4680BD00BF7281FF1F9C81FF1F7481FF1F7681FF1F9881FF1F9D81FF1F7581FF1FA483FF1FA082FF1F80B586B000AF012002F0D6F8012002F0F1F8002069
:4002C00002F08EF900F002FD012002F0A7F94FF4FA7002F0FFFB002002F0A0F94A4802F00DF962B600F02CFD00F06EFD0021002000F07CFD454800F087FE02F0A7F9444BBC
:400300001B78FB75434B00221A60FFF7BDFE424B1B780E2B07D0FB7D542B04D13D4B09221A6001F071F90F227F21542002F094F93B46184600F0ECFC03461A4643F23003CF
:400340009A4204D0334B09221A6001F05DF90621012000F04BFD0023BB713B46184600F053FE40F2DC5002F0B5FB0021012000F03DFD2A4800F048FE00F076FB034603F0C3
:400380002003002B33D0264941F2707000F02CFB03461A4643F230039A4220D14FF4FA6002F098FB1F494FF47A7000F01DFB03461A4643F230039A4209D10021012000F0BD
:4003C00015FD194800F020FE01F01EF916E00021012000F00BFD154800F016FE0EE00021002000F003FD124800F00EFE06E00021002000F0FBFC0F4800F006FE054B09229A
:400400001A6001F001F9FEE701010000E8310000FF8700406C81FF1F9481FF1F0032000018320000203200004032000058320000683200007C32000080B500AF01F08AFEE4
:4004400000BF80BD80B582B000AF0346FB7100F0C5FD0021012000F0C9FC044800F0D4FDFB79184600F0C2FDFEE700BF9032000080B58EB000AFF8607A601A460B467B8117
:4004800013467B722D4B1B68002B02D0012B46D04EE02B4801F050FF0E23BB6107F1180207F11C031146184600F09AFB0346FB86FB8E43F2300293422ED107F1100306226A
:4004C0000021184602F0E1FD07F11C03184600F073FA03463B6107F11C030833184600F033FA03463B7507F11C030A33184600F02BFA03467B75FB6804333B633B6B1A68D0
:400500003B699A420BD13B6B1A793B7D9A4206D10A4B01221A6002E03020FFF793FFFB6801331B78002B02D03220FFF78BFF00BF002318463837BD4680BD00BF6C81FF1F5D
:40054000A032000090B5ADF51F7D00AF07F10C0420600846391D0A60194607F10A0302461A8007F109030A461A7007F10C031B6801221A70C84B1B68012B2FD0092B00F0A1
:400580005A81002B40F0818107F10C031B68013338221A7007F10C031B689A1C07F10C031B680333002119701B78137007F10C031B681C1D07F10C0304211868FFF7BEFD81
:4005C0000346238007F10C031B68063317221A703B1D1B6807221A80002357E1AF4801F0ABFE0B23C7F86C3207F51B7207F114031146184600F0F4FA0346A7F87432B7F80C
:40060000743243F23002934240F00E81D7F86C320B2B40F0098107F114031B783A2B40F0038107F10C031B68013339221A7007F10C031B689C1C07F114030733184600F085
:400640009FF90346A7F87632B7F97632C7F86C32D7F86C329BB2238007F10C031B68023307F10C02126802321288033292B21A8007F10C031B681C1D07F1140301331846BC
:4006800000F062F90346237007F10C031B685C1D07F114030333184600F072F903462380D7F86C3202335B00C7F86C32D7F86C32B3F5167F07D2B7F97632DA1D07F10A03F5
:4006C0001B889A4203DD3120FFF7BCFEB2E00021022000F08BFB07F114030022DA72704800F092FC07F11403184600F08DFC6D4801F022FED7F86C321B0ADAB207F11403C3
:400700001146184600F0EAF8D7F86C32DAB207F1140302331146184600F0E0F807F1140300221A7107F11403184601F005FED7F86C32C7F8703207F51B7207F1140311469E
:40074000184600F04DFA0346A7F87432B7F8743243F23002934263D1D7F86C22D7F870329A425DD13B1D1B6807221A800023C7F86C3225E03B1D1B681B881A4607F10C03B1
:400780001B689C18D7F86C3207F114021344184600F0DAF8034623703B1D1B681B8801339AB23B1D1B681A80B7F976329BB2013B9BB2A7F87632D7F86C320233C7F86C324D
:4007C000B7F97632002BD5DC3B1D1B681B881A4607F10C031B689C183B1D1B681A8807F10C0311461868FFF7A9FC034623803B1D1B681B8802339AB23B1D1B681A803B1DFB
:400800001B681B885A1C91B23A1D126811801A4607F10C031B68134417221A70002335E03220FFF70FFE05E01F4B80221A7002F041F92AE029E007F10C031B6801333B2211
:400840001A7007F10C031B689A1C07F10C031B680333002119701B78137007F10C031B681C1D07F10C0304211868FFF767FC0346238007F10C031B68063317221A703B1D9C
:400880001B6807221A80002300E00523184607F51F77BD4690BD00BF6C81FF1FA8320000B0320000B8320000FA46004080B483B000AF0346FB71FB7903F00F03FB71FB7973
:4008C000092B02D9FB790733FB71FB793033FB71FB7918460C37BD4680BC704790B583B000AF78600B46FB70FB781B09DBB21846FFF7DCFF03461A467B681A707B685C1C02
:40090000FB781846FFF7D2FF0346237000BF0C37BD4690BD80B483B000AF0346FB71FB79392B06D9FB7923F02003FB71FB79373BFB71FB7903F00F03FB71FB7918460C370D
:40094000BD4680BC704700BF90B585B000AF78607B681B781846FFF7DDFF0346FB73FB7B1B01DCB27B6801331B781846FFF7D2FF03462344FB73FB7B18461437BD4690BDE8
:4009800090B585B000AF78607868FFF7DDFF0346FB81FB891B021CB27B6802331846FFF7D3FF03461BB223431BB2FB81FB8918461437BD4690BD00BF90B585B000AF786010
:4009C0007868FFF7DDFF0346FB60FB681C047B6804331846FFF7D4FF03462343FB60FB6818461437BD4690BD80B584B000AF786039600023FB60174B00221A80164B0022CF
:400A00001A70164B00221A70154B00221A80154B00221A703B681B78002B0ED0386801F08BFC0AE0012002F055F8FB680133FB60084B1B889BB2002B04D1FA687B689A4200
:400A4000F0D300E000BF034B1B889BB218461037BD4680BD9881FF1FA082FF1F7481FF1F7281FF1F7681FF1F80B582B000AF0C4942F2107000F018F803467B6010220021AB
:400A8000084802F0A1FB03463B607B681A043B6813437B607B6818460837BD4680BD00BFC0320000A583FF1F80B584B000AF786039600023FB600021254B0A465A80244BB7
:400AC0000A461A80234B00221A700022224B114683F83010204B114619761F4B1A701F4B00221A701E4B00221A8000211D4B0A461A701D4B0A461A70386801F01DFC1AE088
:400B0000012001F0E7FFFB680133FB60104B1B889BB2002B0AD00E4B1B889BB243F23002934203D00A4B1B889BB20DE0084B5B889BB2002B04D1FA687B689A42E0D300E0BA
:400B400000BF034B5B889BB218461037BD4680BD9881FF1FA082FF1FA483FF1F7481FF1F7281FF1F7581FF1F7681FF1F80B584B000AF786039600023FB6042F21073BB6071
:400B80001EE0144B1A88144B1B889BB29A4214D0FB685A1CFA607A681A440E4B1B88591C88B20C49088019460C4B5B5CDBB21370FA683B689A4203D307E0012001F08AFF76
:400BC000BB685A1EBA60002BDBD1FB6818461037BD4680BD7081FF1F7281FF1F9C81FF1F80B588B000AF78603960344B01221A70334B00221A80324B1A88324B1A800D2070
:400C000001F03CFB07F10C0304211846FFF7AEFFF861FB69032B01D800234BE007F10C03013302221946284802F024FA264B1B889BB243F23002934201D000233AE03B68C1
:400C40001B6819467868FFF791FFF8613B681A68FB699A4201D9FB692CE007F10C030A211846FFF783FFB861BB69092B01D8FB6920E007F10C03013310220021184602F090
:400C8000A3FA03461A463B681A6007F10C0304211846FFF76BFFB861BB69042B07D107F10C03013302221946074802F0E3F9064B1B889BB218462037BD4680BD7481FF1F7F
:400CC0007081FF1F7281FF1F9881FF1F80B500AF012001F0C5F9002001F0D2F9642001F0F9FE012001F0CCF9074801F0E5F901F031FA06494FF4FA70FFF776FE1E2001F0FB
:400D0000E9FE00BF80BD00BF7D010000C432000080B584B000AF78600749FA20FFF764FE0346FB810549786802F0B7F9FB8918461037BD4680BD00BFC8320000A082FF1FF4
:400D400080B500AF502001F0C5FE032000F014F90A2001F0BFFE032000F00EF9192001F0B9FE032000F008F9022001F0B3FE022000F002F90A2001F0ADFE062000F0B2F80D
:400D80000E2000F0AFF82C2000F0ACF8082000F0A9F8012000F0A6F80C2000F0A3F8032000F0A0F80A2001F095FE00BF80BD00BF80B500AF0C2000F095F8024B01221A70D4
:400DC00000BF80BD7C81FF1F80B500AF064B1B78002B04D1FFF7B4FF034B01221A70FFF7E7FF00BF80BD00BF7D81FF1F80B582B000AF03460A46FB711346BB71FB79032B7B
:400E000026D801A252F823F0190E0000270E0000350E0000430E0000BB79803BDBB2184600F060F815E0BB79403BDBB2184600F059F80EE0BB796C3BDBB2184600F052F8E4
:400E400007E0BB792C3BDBB2184600F04BF800E000BF00BF0837BD4680BD00BF80B584B000AF78600123FB737B681B78BB730BE0BB7B184600F01EF8FB7B7A6813441B7849
:400E8000BB73FB7B0133FB73BB7B002BF0D100BF1037BD4680BD00BF80B582B000AF0346FB71FB79184600F005F800BF0837BD4680BD00BF80B584B000AF0346FB71FB79FD
:400EC0001B09FB73FB7B184600F024F8FB7903F00F03FB73FB7B184600F01CF800BF1037BD4680BD80B584B000AF0346FB71FB791B09FB73FB7B184600F03EF8FB7903F047
:400F00000F03FB73FB7B184600F036F800BF1037BD4680BD80B582B000AF0346FB71012001F07EF8142001F0F7FDFB7943F01003DBB2184601F084F80A2001F0EDFD72B64E
:400F4000012001F05DF8642001F0E6FD002001F057F862B64FF4FA7001F0DEFD002001F05FF8002001F06CF8142001F0D5FD00BF0837BD4680BD00BF80B582B000AF034691
:400F8000FB71002001F04CF80A2001F0C5FDFB7943F01003DBB2184601F052F80A2001F0BBFD72B6012001F02BF8642001F0B4FD002001F025F862B64FF4FA6001F0ACFDE0
:400FC000002001F02DF8002001F03AF80A2001F0A3FD00BF0837BD4680BD00BF80B500AF0120FFF77FFF00BF80BD00BF80B582B000AF0346FB71FB791846FFF74DFF00BFEE
:401000000837BD4680BD00BF80B582B000AF7860786802F04AF80346142B03D87868FFF71DFF06E07B68143300221A707868FFF715FF00BF0837BD4680BD00BF80B582B011
:4010400000AF786039603A680021786802F01DF800BF0837BD4680BD80B584B000AFF860B9607A607A68B968F86802F003F800BF1037BD4680BD00BF80B584B000AFF86040
:40108000B9607A607A68B968F86801F0F3FF00BF1037BD4680BD00BF80B487B000AF7860396000233B6100237B6127E07B699B007A6813441B68BB60BB68FB73BB6823F085
:4010C000FF03BB6014E03B695B003A6813441B781A46BB68134419463B695B003A6813445B780B703B6901333B61FB7B013BFB73FB7B002BE7D17B6901337B617B691D2BC8
:40110000D4D900BF1C37BD4680BC704780B582B000AF2D4B00221A802C4B58221A702C4B0C221A802B4B18221A702B4B02221A704FF0402308221A70284B45F20E521A809E
:40114000274B01221A70264B1B7843F2C8237B6006E04FF4F07001F057FF7B68013B7B607B68002B05D01E4B1B78DBB25BB2002BEFDB7B68002B03D01A4B4FF400721A8084
:40118000194B00221A70194B194A1278D2B21A70144B07221A70174B00221A70164B48221A70104B00221A70144B02221A70144A134B1B78DBB243F00303DBB2137000BF53
:4011C0000837BD4680BD00BF804000408240004084400040864000400043004012420040104200400440004000420040A14600400A010049064000400840004001400040EC
:40120000A243004080B483B000AF0B4B1B78FB710A4AFB7903F00703DBB21370084AFB791B09DBB21370074B44221A7000BF0C37BD4680BC704700BFCF0100496E58004037
:401240006F5800407658004080B586B000AF72B60023FB7513E0FA7D13465B0013445B00514A13443B613B691A683B699B889BB219461046FFF7E2FEFB7D0133FB75FB7DCD
:40128000042BE8D90023FB751CE0FA7D13469B0013445B00454A1344FB60FB681B68BB60FB685B687B60FB681A7A5B7A1B0213437B807B881A467968B868FFF7DDFEFB7D68
:4012C0000133FB75FB7D002BDFD039493948FFF7E3FE394A384B1B78DBB243F00203DBB21370364A354B1B78DBB243F00203DBB21370334A324B1B78DBB243F04003DBB22B
:401300001370304A2F4B1B78DBB243F01003DBB213700A222C492D48FFF7AEFE0A222C492C48FFF7A9FE0A222B492C48FFF7A4FE0A222B492B48FFF79FFE0A222A492B48F2
:40134000FFF79AFE0A222A492A48FFF795FE082229492A48FFF790FE0A2229492948FFF78BFE0A2228492948FFF786FE284A284B1B78DBB243F00803DBB21370254B0122B7
:401380001A70FFF7C3FE234B41221A70224B01221A70FFF737FF0E2209492048FFF75CFE00BF1837BD4680BDCC320000EC32000070330000F83200000350014013500140A2
:4013C000A0430040C24300403C3800000051004048380000C051004054380000F051004060380000105100406C380000205100407838000030510040843800004251004014
:401400008C380000505100409838000060510040224300400048004004000840B043004080B400AFFEE700BF80B586B000AF224B7B61224B3B61204B7B6135E03B691B6824
:40144000FB603B695B68BB603B699B683B6000237B600CE0FB681A68BB681A60BB680433BB60FB680433FB607B6804337B607A683B689A42EED13B69DB683B6000237B60E2
:4014800008E0BB6800221A60BB680433BB607B6804337B607A683B689A42F2D13B6910333B617B69013B7B617B69002BC6D101F0BBFDFEF7FBFEFEE701000000DC39000040
:4014C00080B582B000AF184B184A1A60184A184B1B6843F40073136000237B600FE07B68032B04D8134A7B6852F8233000E0124B12497A6841F822307B6801337B607B68A1
:401500002F2BECD90E4B1B78DAB20E4B1A700E4B0A4A1A60FFF798FE0C4B00221A6000BF0837BD4680BD00BF0CED00E00004FA0514ED00E000000000211400000080FF1FFE
:40154000BC760040C480FF1F08ED00E0C080FF1F80B485B000AF78600B467B800023FB810BE07B88013B7A6813441B789AB2FB891344FB817B88013B7B807B88002BF0D1C7
:40158000FB895B429BB218461437BD4680BC704780B485B000AF786039600023FB7309E03B68013B3B607A683B6813441A78FB7B1344FB733B68002BF2D1FB7B1846143748
:4015C000BD4680BC704700BF80B485B000AF786039600023FB730DE03B68013B3B607A683B68134403F1804303F500431A78FB7B1344FB733B68002BEED1FB7B184614376E
:40160000BD4680BC704700BF80B5CAB000AF01F019F90346002B02D0002001F03FFA3B46184601F021F90346002B02D0002001F035FA234B1B681B6819460020FFF7A8FF04
:40164000034687F827311F4B1B681B7897F82721D31A87F8273197F827315B4287F82731184B1B681B7897F827219A4204D1144B1B681B68002B02D1002001F00FFA002036
:4016800000F052F8C7F820010F4B1B78DBB203F0C003402B03D0D7F82031002B05D00A4B00221A70002000F0B9F8012000F0B6F800F00CF800BF07F59477BD4680BD00BF48
:4016C000D080FF1FCC80FF1FFA46004080B500AF034B80221A7001F0EDF900BF80BD00BFFA46004080B500AF0D4B1B78DBB203F0C003802B11D10A4B00221A700021012040
:4017000000F0AEFB0346002B07D00021012000F0A7FB0346184600F005F800BF80BD00BFFA460040004700BF90B587B000AF0346FB71FB791946022000F092FB034601334D
:401740001C02FB791946032000F08AFB03462344FB600023FB740023BB74FB791946022000F07EFB034601331B027B6111E07B691B78FB72FB7A002B04D0FB7AFF2B01D064
:401780000123FB74BA7CFB7A1344BB747B6901337B617A69FB689A42E9D3FB791946022000F05EFB034601331B02DB087B61FB68194A934202D0FB68DB0801E04FF40043E2
:4017C000FB600AE07B6903F190431B78DAB2BB7C1344BB747B6901337B617A69FB689A42F0D3BB7C5B42BB74FA7913461B069B1A1B0203F57F3303F570731B78DBB2BA7CA7
:401800009A4202D1FB7C002B01D1062300E0002318461C37BD4690BDC0FF030080B5ADF56C7D00AF0246FB1D1A700023A7F8AA330023A7F8A8330A2387F8A733002387F8D9
:40184000A633002387F8A533FEF7F6FD62B6002387F8AD33FB1D1B78002B02D0FB1D1B7800E0FF2307F28E3207F518704FF49671FEF768FEC7F89C03FB1D1B78002B04D054
:4018800097F8A733013B87F8A73397F8A733002B03D0D7F89C33002BDCD1D7F89C33002B40F07D82B7F88E33062B04D907F518731B78012B03D0042387F8AD3349E007F513
:4018C0001873DB789BB21B029AB207F518739B789BB21343A7F8AA33B7F8AA33053307F51872D35C9BB21B029AB2B7F8AA33043307F51871CB5C9BB21343A7F89A33B7F83F
:40190000AA330733B7F88E23934203D9032387F8AD331EE0B7F8AA33063307F51872D35C172B03D0042387F8AD3312E0B7F8AA3304339AB207F5187311461846FFF708FEAE
:4019400003461A46B7F89A33934202D0082387F8AD330023A7F8AE3397F8AD33002B40F0148207F518731B7987F89933042387F8AD3307F518735B78313B0A2B00F2F481C0
:4019800001A252F823F000BFB5190000F1190000691D00004F1A0000931B0000691D0000A51B0000F71B00004F1A0000371C0000511D000097F8A533012B40F0D981B7F8A5
:4019C000AA33002B40F0D4810020FFF7ADFE0346002B0CBF01230023DBB21A4607F518731A710123A7F8AE33002387F8AD33BFE197F8A533012B40F0BD81B7F8AA33012B95
:401A000040F0B88197F89933032B00F2B3810023A7F89633B7F89633DAB207F518731A71B7F896331B0A9BB2DAB207F518735A7107F51873FF229A7107F518730322DA717B
:401A40000423A7F8AE33002387F8AD3392E107F518735B78342B21D197F8A533012B40F09481B7F8AA33032B40F08F8197F899333F2B07D997F99933002B03DB1023A7F871
:401A8000A83303E04FF49073A7F8A833B7F8A82307F59A730021184601F0F7FA97F8A533012B40F06981B7F8AA33022B40F26481B7F8A83307F59A72D018B7F8AA33DA1E49
:401AC00007F518730733194601F0D4FAB7F8A823B7F8AA3313449BB2033BA7F8A83397F899333F2B09D997F99933002B05DB00F08FFF1023A7F8AA3303E04FF49073A7F8A2
:401B0000AA33B7F8A823B7F8AA339A423AD107F518739B799BB21B029AB207F518735B799BB21343A7F8A83397F899333F2B16D897F8A633002B12D107F10C034FF490729D
:401B40000021184601F0A1FA07F10C024FF49073FF21032000F0B2FE012387F8A633B7F8AA3307F59A72B7F8A81397F8990300F0A5FE0346002B01D00A2300E0002387F8FF
:401B8000AD3302E0032387F8AD330023A7F8A833F2E097F8A533012B40F0F0800023A7F8A833FDE097F8A533012B40F0E980B7F8A823B7F8AA331344B3F5967F17D800236A
:401BC00087F8AD33B7F8A83307F59A72D018B7F8AA2307F518730433194601F04BFAB7F8A823B7F8AA331344A7F8A833C8E0032387F8AD33C4E0B7F8AA33002B40F0C2806C
:401C000007F596736E4A92E8030083E80300012387F8A5330823A7F8AE33B7F8AE2307F5967107F518730433184601F023FA002387F8AD33A6E097F8A533012B40F0A4803A
:401C4000B7F8AA33032B40F09F8007F518739B799BB21B029AB207F518735B799BB21343A7F8943397F899333F2B11D997F99933002B0DDBB7F894331B01C7F89033102143
:401C8000D7F89003FFF7A0FC034687F8A43311E097F899331A02B7F8943313441B02C7F890334FF48071D7F89003FFF771FC034687F8A43397F899333F2B23D897F899330A
:401CC00003F510331A02B7F8943313445B01C7F890330023A7F8A23310E0B7F8A223D7F8903313441B78DAB297F8A433134487F8A433B7F8A2330133A7F8A233B7F8A2331C
:401D00001F2BEAD997F89933032B13D1B7F89433FF2B0FD12B4B1B78DBB297F8A423D31A87F8A433284B1B78DBB297F8A423D31A87F8A43397F8A4335B42DAB207F5187338
:401D40001A71002387F8AD330123A7F8AE331BE00020FFF7E9FC0346002B02D11B4B80221A7000F0A7FE10E0052387F8AD330CE000BF0AE000BF08E000BF06E000BF04E053
:401D800000BF02E000BF00E000BFB7F8AE2307F5187197F8AD33184600F01AF800E000BFFB1D1B78002B3FF452AD97F8A533012B3FF44DAD00BF07F56C77BD4680BD00BF4C
:401DC000AC380000D0FF0300D1FF0300FA46004080B584B000AF03463960FB711346BB803B6801221A703B680133FA791A703B680233BA88D2B21A703B680333BA88120A5D
:401E000092B2D2B21A70BB8804339BB219463868FFF79EFB0346FB81BB8804333A681344FA89D2B21A70BB8805333A681344FA89120A92B2D2B21A70BB8806333A68134458
:401E400017221A70BB88073399B23A1D96233868FEF70EFB034618461037BD4680BD00BF80B586B000AF03460A46FB711346BB710223FB74FB79013B062B64D801A252F8FA
:401E800023F000BFD11E0000EB1E0000011F0000BB1E00001B1F0000311F0000A11E0000BA7913461B069B1A1B0203F57F3303F576737B610423FB744BE0BA7913461B06C2
:401EC0009B1A1B0203F57F3303F2D2337B6140E0BA7913461B069B1A1B0203F57F3303F2C1337B610423FB7433E0BA7913461B069B1A1B0203F57F3303F2C5337B6128E0DF
:401F0000BA7913461B069B1A1B0203F57F3303F2C9337B610423FB741BE0BA7913461B069B1A1B0203F57F3303F2D6337B6110E0BA7913461B069B1A1B0203F57F3303F506
:401F400075737B6105E0002000F0A8FD00237B6100BFFB7C022B0CD17B6901331B78DBB2FB607B691B78DBB21B02FA681343FB601BE07B6903331B78DBB2FB607B69023354
:401F80001B78DBB21B02FA681343FB607B6901331B78DBB21B04FA681343FB607B691B78DBB21B06FA681343FB60FB79022B04D0032B0FD0012B0DD01DE0FB689BB21B02DA
:401FC0009AB2FB681B0A9BB2DBB29BB213439BB2FB6010E0FB681A0EFB681B0A03F47F431A43FB681B0203F47F031A43FB681B061343FB6000BFFB6818461837BD4680BD35
:4020000080B483B000AF0346FB71044AFB79137000BF0C37BD4680BC704700BF7764004080B483B000AF0346FB71044AFB79137000BF0C37BD4680BC704700BF77650040DB
:4020400080B483B000AF0346FB71044AFB79137000BF0C37BD4680BC704700BF7A64004080B483B000AF0346FB71044AFB79137000BF0C37BD4680BC704700BF766400409A
:4020800080B485B000AF0346FB710A4B1B78DBB223F00103FB730749FB7903F00103DAB2FB7B1343DBB20B7000BF1437BD4680BC704700BFC051004080B582B000AF786040
:4020C00000F03CF8786800F009F8072000F018F800F028F800BF0837BD4680BD80B485B000AF7860054B1B68FB60FB6840337A681A6000BF1437BD4680BC704708ED00E051
:4021000080B483B000AF0346FB71054AFB795B01DBB2137000BF0C37BD4680BC704700BF00E400E080B400AF034B01221A6000BFBD4680BC704700BF00E100E080B400AF44
:40214000034B01221A6000BFBD4680BC704700BF80E100E080B500AF064B1B78002B04D100F00AF8034B01221A7000F02DF800BF80BD00BF7E81FF1F80B500AF0C4B71224F
:402180001A700C4B20221A700B49012000F0D8FC0721012000F0FCFC084B06221A70084B47221A70074B02221A7000BF80BD00BF86650040866400407D2300002B6400403E
:4021C0003B6400408764004080B582B000AF00F023FF0346FB71134A124B1B78DBB243F02003DBB21370104A0F4B1B78DBB243F01003DBB213700D4A0C4B1B78DBB243F08D
:402200001003DBB213700A4B02221A60094B02221A60FB79184600F003FF00BF0837BD4680BD00BF96650040966400409764004080E200E000E100E080B483B000AF0023E9
:40224000FB710C4B1B78BB71BB7903F02003002B09D0094B1B78FB71BB7903F01E03002B01D00023FB71FB7918460C37BD4680BC704700BF666400404664004080B485B041
:4022800000AF0346FB71264B1B88FB81254B1B88BB81FA89BB899A4208D2FA89BB89013B9A420CBF01230023DBB209E0FA89BB89D31A40F2FF1293420CBF01230023DBB28C
:4022C000002BE0D1BA89FB899A420AD1164B1B78DBB203F00403002B03D1144AFB79137019E0FB89B3F5007F01D30023FB81FB890F49FA79CA54FB890133FB81084AFB8927
:402300001380094B1B78DBB203F00203002B02D0084B02221A6000BF1437BD4680BC70478281FF1F8081FF1F67640040476400400484FF1F00E200E080B584B000AF786022
:402340000023FB810C4B1B78002B10D009E0FB897A6813441B781846FFF790FFFB890133FB81FB897A6813441B78002BEFD100BF1037BD4680BD00BF7E81FF1F80B400AF39
:4023800018E0154B1B889BB2B3F5007F02D3124B00221A80114B104A128892B21146104A525CD2B21A700C4B1B889BB201339AB2094B1A80084B1B889AB20A4B1B889A42F4
:4023C00006D0094B1B78DBB203F00403002BD8D000BFBD4680BC70478081FF1F476400400484FF1F8281FF1F6764004080B485B000AF0346FB710B4B1B78DBB223F00803D4
:40240000FB730849FB79DB00DBB203F00803DAB2FB7B1343DBB20B7000BF1437BD4680BC704700BF1051004080B485B000AF0346FB710B4B1B78DBB223F00403FB73084927
:40244000FB799B00DBB203F00403DAB2FB7B1343DBB20B7000BF1437BD4680BC704700BFF051004080B485B000AF0346FB710B4B1B78DBB223F04003FB730849FB799B01BE
:40248000DBB203F04003DAB2FB7B1343DBB20B7000BF1437BD4680BC704700BF1051004080B485B000AF0346FB710B4B1B78DBB223F02003FB730849FB795B01DBB203F011
:4024C0002003DAB2FB7B1343DBB20B7000BF1437BD4680BC704700BF0051004080B400AF054B1B78DBB203F08003DB09DBB21846BD4680BC704700BF8045004080B582B050
:4025000000AF786000F03CF8786800F009F8072000F018F800F028F800BF0837BD4680BD80B485B000AF7860054B1B68FB60FB6850337A681A6000BF1437BD4680BC70474A
:4025400008ED00E080B483B000AF0346FB71054AFB795B01DBB2137000BF0C37BD4680BC704700BF04E400E080B400AF034B10221A6000BFBD4680BC704700BF00E100E0FB
:4025800080B400AF034B10221A6000BFBD4680BC704700BF80E100E080B400AF034B10221A6000BFBD4680BC704700BF80E200E080B400AF034B1B78DBB21846BD4680BC08
:4025C000704700BF6A64004080B400AF034B1B78DBB21846BD4680BC704700BF6765004080B485B000AF0346FB710B4B1B78DBB223F02003FB730849FB795B01DBB203F05F
:402600002003DAB2FB7B1343DBB20B7000BF1437BD4680BC704700BFF051004080B483B000AF0346FB71044AFB79137000BF0C37BD4680BC704700BF7B64004080B500AF0D
:4026400000F000F900F0E4F900BF80BD80B500AFFFF7F4FF00BF80BD80B584B000AF0346FB710B46BB7113467B7100F0B5FA97F90630002B64DB7B790F2B61D800F046FCE8
:402680000346002B59D14FF0FF33FB607B7999B2FA1D0123402000F0EDFA0346072B49D100BF2B4B1B78DBB203F00203002BF8D0274B1B78DBB203F00203002B08D0244B2E
:4026C0001B78DBB29B08DBB2002B01D10023FB60FB68002B2BD1BB7999B21E4B1A781D4B5B78402000F094FB0346072B1BD14FF0FF33FB6000BF164B1B78DBB203F0020386
:40270000002BF8D0124B1B78DBB203F00203002B10D00F4B1B78DBB29B08DBB2002B09D10023FB6006E04FF0FF33FB6002E04FF0FF33FB6000F01EFC04E00423FB6001E048
:402740000123FB60FB6818461037BD4680BD00BF224700400486FF1F80B582B000AF00F03BFA4FF0FF337B6000F0D0FB0346002B24D1012000F098FB0346072B1BD10221A9
:40278000124800F04DFA0346022B0DD100237B6002E0012000F0C0F90D4B1B78DBB203F00203002BF5D006E0094B1B78DBB203F00203002BE3D000F0DDFB01E004237B604F
:4027C0007B6818460837BD4680BD00BF0486FF1F2247004080B582B000AF00F0FDF900F095FB0346002B23D100F0ECFB78607B68072B1AD102E0012000F08EF9104B1B780E
:40280000DBB203F00203002BF5D00D4B1B78DBB203F00203002B08D0094B1B78DBB29B08DBB2002B01D100237B6000F0A3FB01E004237B607B6818460837BD4680BD00BF21
:402840002247004080B582B000AFFFF7C3FF78607B68002B02D1FFF77FFF78607B6818460837BD4680BD00BF80B584B000AF78600023FB6000F0B0F97B68002B06D10E4B18
:402880001B680D4A13600123FB6010E000F03EFB0346002B06D0084B1B68074A13600423FB6004E0044A7B68136000F063FBFB6818461037BD4680BD8881FF1F80B586B01D
:4028C00000AFBA601A460346FB730B46BB811346FB8000237B61FB7B3F2B04D8FB7B042B01D901237B6197F90F30002B01DA01237B61FB7B3F2B04D9FB7B412B01D90123EB
:402900007B61FB7B3F2B06D8BB89B3F5807F0CD901237B6109E0BB89802B01D901237B61FB88102B01D001237B61BB68002B01D101237B617B69002B60D100F0E7FA034672
:40294000002B59D1FB88B989F87BBA6800F0FAF978617B69072B4CD102E0012000F0DCF8294B1B78DBB203F00203002BF5D0264B1B78DBB203F00203002B09D0224B1B78E9
:40298000DBB29B08DBB2002B02D100237B6102E04FF0FF337B617B69002B2AD11B4B1A781A4B5B78B989F87B00F032FA78617B69072B1ED102E0012000F0AEF8124B1B78BC
:4029C000DBB203F00203002BF5D00F4B1B78DBB203F00203002B09D00B4B1B78DBB29B08DBB2002B02D100237B6102E04FF0FF337B6100F0BFFA01E004237B617B6918464B
:402A00001837BD4680BD00BF224700400486FF1F80B582B000AF00F0FFFA0346FB71194A184B1B78DBB243F00803DBB21370164A154B1B78DBB243F00803DBB21370134B83
:402A4000C8221A70124A124B1B78DBB243F01003DBB213700F4A0F4B1B78DBB243F01003DBB2137000BF0C4B1B78DBB203F02003002BF8D0FB79184600F0D2FA00BF0837BF
:402A8000BD4680BDA0430040B043004001470040AC430040BC4300400047004080B483B000AF0346FB7101BE00BF0C37BD4680BC704700BF80B400AF054A054B1B78DBB220
:402AC00043F00103DBB2137000BFBD4680BC7047F646004080B582B000AF786008E00C4B1B68184600F090FA7B68A3F500437B607B68B3F5004FF2D8064B1B687A6802FBE6
:402B000003F3184600F080FA00BF0837BD4680BDE080FF1FD880FF1F80B582B000AF0346FB80FB88054A127802FB03F3184600F06BFA00BF0837BD4680BD00BFDC80FF1F52
:402B400080B584B000AF03463960FB710F4B1B68FB60FB791F2B02D90020FFF79FFFFB7903F01F0310339B00FA6813441B68BB60FB7903F01F0310339B00FA6813443A68EA
:402B80001A60BB6818461037BD4680BD08ED00E080B582B000AF03460A46FB711346BB71BB79072B02D90020FFF778FFFB791F2B02D90020FFF772FFFB7903F01F0303F1B3
:402BC000604303F56443BA795201D2B21A7000BF0837BD4680BD00BF80B582B000AF00F01BFA0346FB710C4A0B4B1B78DBB243F00803DBB21370094A084B1B78DBB243F01F
:402C00000803DBB21370FB79184600F009FA00BF0837BD4680BD00BFA0430040B043004080B584B000AF78600B46FB700023FB7313E00120FFF770FF0C4B1B78DBB203F041
:402C40000103002BF5D0FB7B7A681344084A1278D2B21A70FB7B0133FB73FA7BFB789A42EAD3FB7B18461037BD4680BD224700402047004080B485B000AF3A601A46034628
:402C8000FB710B46BB801346BB710723FB60FB793E2B02D8BB791F2B05D9FB793F2B45D9BB790F2B42D8254B1B78DBB203F00203002B38D0224BB6221A70214BD4221A7005
:402CC0001F4B01221A701D4B1B78DBB203F00203002B25D11A4AFB791370194ABB881B0A9BB2DBB203F00103DBB21370144BBA88D2B21A70124ABB79013BDBB21370002367
:402D0000FB7208E00E49FB7A3A6813441B780B70FB7A0133FB72FA7ABB799A42F2D307E00923FB6004E00423FB6001E00123FB60FB6818461437BD4680BC7047224700402D
:402D40002047004080B489B000AFBA601A460346FB730B46BB811346FB800723FB612A4B1B78DBB203F00203002B45D0274BB6221A70264BD5221A70244B02221A70224B5B
:402D80001B78DBB203F00203002B32D11F4AFB7B137000237B8308E01C497B8BBA6813441B780B707B8B01337B837A8BFB889A42F2D3FB88B3F5807F20D1FB7B3F2B1DD81F
:402DC000FB7B03F510331A02BB8913445B017B6100237B8309E00D497A8B7B6913441B78DBB20B707B8B01337B837B8B1F2BF2D904E00923FB6101E00423FB61FB69184613
:402E00002437BD4680BC7047224700402047004090B484B000AF0446084611461A462346FB710346BB800B46BB711346FB700723FB601B4B1B78DBB203F00203002B26D0BD
:402E4000184BB6221A70174BD8221A70154B05221A70134B1B78DBB203F00203002B13D1104AFB7913700F4ABB881B0A9BB2DBB213700C4BBA88D2B21A700A4ABB791370F0
:402E8000084AFB78137004E00923FB6001E00423FB60FB6818461037BD4690BC704700BF224700402047004080B485B000AF0346FB710723FB60134B1B78DBB203F0020317
:402EC000002B16D0104BB6221A700F4BE1221A700D4B0E221A700B4B1B78DBB203F00203002B03D1084AFB79137004E00923FB6001E00423FB60FB6818461437BD4680BC3C
:402F0000704700BF224700402047004080B582B000AF04237B6000F07FF80346FB70124B1B78002B16D1104B01221A7000237B600E4B1B6803F00103002B0BD00B4A0B4B0C
:402F40001B6823F00103136000BF00BF00BF084B01221A60FB78184600F062F87B6818460837BD4680BD00BF8C81FF1F040008409081FF1F80B582B000AF00F04DF8034643
:402F8000FB710D4B00221A700C4B1B68012B0BD10B4A0B4B1B6843F00103136000BF00BF00BF064B00221A60FB79184600F038F800BF0837BD4680BD8C81FF1F9081FF1F33
:402FC0000400084080B483B000AF07237B600C4B1B78DBB203F00203002B09D0094BB6221A70084BE0221A70064B0D221A7001E004237B607B6818460C37BD4680BC7047FB
:4030000022470040204700400230800803D000BF01380046FCD17047EFF3108072B6704780F31088704700BF0E4B70B51E460E4C0025E41AA410A54204D056F825309847CF
:403040000135F8E700F0B8FC084B094C1E46E41AA4100025A54204D056F8253098470135F8E770BDC4390000C4390000C4390000CC39000010B5431E0A44914204D011F815
:40308000014B03F8014FF8E710BD03460244934202D003F8011BFAE77047034611F8012B03F8012B002AF9D17047034613F8012B002AFBD1181A0138704700002DE9F047B3
:4030C0000F4680463F48D0F800903D4615F8014B09EB0400407800F0080000F0FF0608B12F46F2E72D2C03D1BD1C7C78012603E02B2C04BF7C78BD1C13B1102B0AD15BE056
:40310000302C57D1287800F0DF0058284DD16C7810230235002E14BF4FF0004C6FF0004CBCFBF3FA0027384603FB1ACC09EB040E9EF801E01EF0040F01D0303C0BE01EF078
:40314000030E1BD0BEF1010F0CBF4FF0370E4FF0570ECEEB0404A34210DDB7F1FF3F0AD0504506D801D1644503DC03FB0040012701E04FF0FF3715F8014BD7E77B1C0CD13A
:40318000002E4FF0220314BF4FF000406FF00040C8F800302AB9BDE8F08706B1404272B107B1691E1160BDE8F0873024002BB1D10823AFE70A23ADE7302CA3D0AAE7BDE8ED
:4031C000F08700BF4881FF1F13460A46014602480068FFF773BF00BF4481FF1F13000000003B0000000000002020202020496E7374726F54656B20202020202000000000F5
:403200002020202020204C4F4144494E472020202020202000000000492055303A0D00004F2030523E55303A5C58706C6F726572327570646174652E63796163640D000091
:4032400020202020204C4F4144494E472043594143442020000000002020204E4F20435941434420202020004452495645204E4F54204D4F554E54454400000044524956EF
:4032800045204E4F542050524553454E5400000020204C4F4144204552524F52212000005220305E3E4500005220305E3E42000020202020000000005220305E3E0000006B
:4032C0004A0D000000000000560D000000000140001000140140000800400140000A004C01400002005001402000000018520040A4380000070000000145004006520040F0
:403300000264004001650040040301400B0501405E0601404907014014090140420A0140420B0140040D01400D150140401601403A17014006190140061B014005400140D3
:403340000641014005420140044301400E4501400E4601400547014007480140104901400B4C0140174D0140075001400151014007021015113C2C0634206102641C8638CB
:40338000870F867182408740E401EA02852087048B048F0896809780A602AA02E002E208E41003010702100117022B013102350136013E403F114064410542034402450CF8
:4033C000470E481149FF4AFF4BFF4C624DA04EF04F41500C54185604580459045A045B045D115F016640670269106A306B106D106E106F1282108510880689108A188B0CD5
:403400008C018D1491209303950C97119A0A9C149E08A11CA302A406A608A806AA08AD09AF10B001B11FB21EB320BA08BE01BF04C032C106C5ECC60BC807C9FFCAFFCBFF78
:40344000CEF0CF44D00CD401D604D804D904DA04DB04DC11DD11DF01E6C0EA40EB0200120140024004080610084009200A020E801010122818101A801E0121022204240890
:40348000260128402A402F0831023208370438903B083D023F0840104120472649854AA94D204F4850405708581059015A405B085D02620265806610678069406E808601EF
:4034C0008D0492429308968097849B08A001A120A208A602AC01B209B640C00BC213C406CA29CC43CECED0E6D234D68FD8B1EE088F0294089C809D209E029F02A520A6800C
:40350000A802A901AB04AD02AE04B010B310B708E010E804EA21EEC100010808090116081810240428082C023002320133013418360438203E453F04580459045B045C01B6
:403540005F018101824C84318646886C8A038B0293029431960E99029E08A613A702A902B030B24AB301B40FB502B802BA28BE01BF14C004C740C9FFCA07CBFFCC40CD2061
:40358000CEF0CF05D008D804D904DA04DB04DC01DD01DF01E040E1A8E240E3200020034004080512072009100B200E200F02102213201620182019411A081C201D121E209A
:4035C0001F14231027182F14372239103E224502551056205701588259205B045C115D48612062826320682269106B406D80801081408310854086208B118E028F10901165
:403600009908A540B411C07AC2A6C427CA60CCA0CEA4D080D6FFD80FE006E280E418E6458908A540AD40E4018180832086018A04920896019D809F20AB01B014E288E8203F
:40364000EA010108020104810510064008A709100A180D2F0E861110150C172318B919231A021B0C1C391E841F2220BF210E2321240825042818290C2C1030403101322069
:40368000332C3498350E361F371039023AA03B083E0456025711580459045B045C115D105F018201880190019101A201A601A801B001B501BB02BF10D804D904DB04DC11BA
:4036C000DF0100020120053107220B400E0A11081280132015021602171819021C021D111E221F40210123442505268427062E282F4030023510368437013E163F405814CC
:4037000059805A015E20630168026E146F01762A7718920897449D229F26A501A810AA80B240C0FAC2C8C4FECAE0CCF1CEF0D62FD808EA20EC059C809D20A680A804AA0213
:40374000B520AA80B120B480E208EA01EE84312037205020CC30D42085209F20A520AC20E210EA4051208C01AB20D420EA8085209401A520E21001120488534255045701E8
:403780006210652081208910C00FD407D604D803E20181828302861087018B40978099029E10A504A703B444E401EA08EE0897019F02A580A904AB03052027089202940177
:4037C000B201C080C8200001071459405F086A0283148940920294019B08B120C0B0D480D680DC20E0A0020808020F4097019F02A580A740B740C002C20CEE020580091016
:403800000A200D800F80130117028580962097019F02A590A740A910AA10B208B340B402C001C20FC40CEA0CEE01000201010A020B010C0210021A02000F0000A80000E8F1
:403840004000000000000000ED0010ED2200020000000000180000382400000000000000340004734B00000000000000800000BF3F003F00000000000700188784008484A1
:40388000000000000082820002000000F9000EF30100000000000000C0002140C00000000000000080040084180000006930122E00140101430000202020202020202020B4
:4038C0002828282828202020202020202020202020202020202020881010101010101010101010101010100404040404040404040410101010101010414141414141010128
:403900000101010101010101010101010101010101011010101010104242424242420202020202020202020202020202020202020202101010102000000000000000000001
:403940000000000000000000000000000000000000000000000000000000000000000000000000000000000000000000000000000000000000000000000000000000000047
:403980000000000000000000000000000000000000000000000000000000000000000000000000000000000000000000000000000000000000000000F8B500BFF8BC08BC23
:4039C0009E46704751000000C1140000F8B500BFF8BC08BC9E4670472D000000F0390000C880FF1F88000000B80400000000000000000000DC310000E0310000001BB70097
:403A0000E02E00000C000000000070170000000000000000000000000000000000000000000000000000000000000000B438000000000000000000000000000000000000F9
:403A40000000000000000000000000000000000000000000000000000000000000000000000000000000000000000000E480FF1FB6380000000000000000000000000000D6
:403A80000000000000000000000000000000000000000000000000000000000000000000000000000000000000000000000000000000000000000000000000000000000006
:403AC00000000000000000000000000000000000000000000000000000000000000000000000000000000000000000000000000000000000000000000000000000000000C6
:403B00000000000000000000000000000000000000000000000000000000000000000000000000000000000000000000000000000000000000000000000000000000000085
:403B40000000000000000000000000000000000000000000000000000000000000000000000000000000000000000000000000000000000000000000000000000000000045
:020000040003F7
:40FFC00000000000000000000000000000000000000000000100010000000000000000000000000000000000000000000000000000000000000000000000000000000000FF
:0200000480007A
:4000000000000000000000000000000000000000000000000000000000000000000000000000000000000000000000000000000000000000000000000000000000000000C0
:400040000000000000000000000000000000000000000000000000000000000000000000000000000000000000000000000000000000000000000000000000000000000080
:400080000000000000000000000000000000000000000000000000000000000000000000000000000000000000000000000000000000000000000000000000000000000040
:4000C0000000000000000000000000000000000000000000000000000000000000000000000000000000000000000000000000000000000000000000000000000000000000
:0200000490006A
:0400000000004005B7
:0200000490105A
:04000000BC90ACAF55
:0200000490303A
:020000000E02EE
:0200000490402A
:4000000000000000000000000000000000000000000000000000000000000000000000000000000000000000000000000000000000000000000000000000000000000000C0
:400040000000000000000000000000000000000000000000000000000000000000000000000000000000000000000000000000000000000000000000000000000000000080
:400080000000000000000000000000000000000000000000000000000000000000000000000000000000000000000000000000000000000000000000000000000000000040
:4000C0000000000000000000000000000000000000000000000000000000000000000000000000000000000000000000000000000000000000000000000000000000000000
:0200000490501A
:0C00000000012E12306900012E283E6B1A
:00000001FF